{
  "contractName": "Hamid",
  "abi": [
    {
      "inputs": [],
      "stateMutability": "nonpayable",
      "type": "constructor"
    },
    {
      "anonymous": false,
      "inputs": [
        {
          "indexed": true,
          "internalType": "address",
          "name": "owner",
          "type": "address"
        },
        {
          "indexed": true,
          "internalType": "address",
          "name": "spender",
          "type": "address"
        },
        {
          "indexed": false,
          "internalType": "uint256",
          "name": "value",
          "type": "uint256"
        }
      ],
      "name": "Approval",
      "type": "event"
    },
    {
      "anonymous": false,
      "inputs": [
        {
          "indexed": true,
          "internalType": "address",
          "name": "from",
          "type": "address"
        },
        {
          "indexed": true,
          "internalType": "address",
          "name": "to",
          "type": "address"
        },
        {
          "indexed": false,
          "internalType": "uint256",
          "name": "value",
          "type": "uint256"
        }
      ],
      "name": "Transfer",
      "type": "event"
    },
    {
      "inputs": [],
      "name": "decimals",
      "outputs": [
        {
          "internalType": "uint256",
          "name": "",
          "type": "uint256"
        }
      ],
      "stateMutability": "view",
      "type": "function"
    },
    {
      "inputs": [],
      "name": "name",
      "outputs": [
        {
          "internalType": "string",
          "name": "",
          "type": "string"
        }
      ],
      "stateMutability": "view",
      "type": "function"
    },
    {
      "inputs": [],
      "name": "owner",
      "outputs": [
        {
          "internalType": "address",
          "name": "",
          "type": "address"
        }
      ],
      "stateMutability": "view",
      "type": "function"
    },
    {
      "inputs": [],
      "name": "symbol",
      "outputs": [
        {
          "internalType": "string",
          "name": "",
          "type": "string"
        }
      ],
      "stateMutability": "view",
      "type": "function"
    },
    {
      "stateMutability": "payable",
      "type": "receive"
    },
    {
      "inputs": [
        {
          "internalType": "uint256",
          "name": "value",
          "type": "uint256"
        }
      ],
      "name": "returnTOken",
      "outputs": [],
      "stateMutability": "nonpayable",
      "type": "function"
    },
    {
      "inputs": [
        {
          "internalType": "address",
          "name": "add",
          "type": "address"
        }
      ],
      "name": "delegateManagePrice",
      "outputs": [
        {
          "internalType": "bool",
          "name": "",
          "type": "bool"
        }
      ],
      "stateMutability": "nonpayable",
      "type": "function"
    },
    {
      "inputs": [
        {
          "internalType": "address",
          "name": "newOwner",
          "type": "address"
        }
      ],
      "name": "TransferOwnership",
      "outputs": [
        {
          "internalType": "bool",
          "name": "",
          "type": "bool"
        }
      ],
      "stateMutability": "nonpayable",
      "type": "function"
    },
    {
      "inputs": [
        {
          "internalType": "uint256",
          "name": "addAmount",
          "type": "uint256"
        }
      ],
      "name": "mint",
      "outputs": [
        {
          "internalType": "uint256",
          "name": "",
          "type": "uint256"
        }
      ],
      "stateMutability": "nonpayable",
      "type": "function"
    },
    {
      "inputs": [
        {
          "internalType": "address",
          "name": "recipient",
          "type": "address"
        },
        {
          "internalType": "uint256",
          "name": "amount",
          "type": "uint256"
        }
      ],
      "name": "transfer",
      "outputs": [
        {
          "internalType": "bool",
          "name": "",
          "type": "bool"
        }
      ],
      "stateMutability": "nonpayable",
      "type": "function"
    },
    {
      "inputs": [
        {
          "internalType": "address",
          "name": "spender",
          "type": "address"
        },
        {
          "internalType": "uint256",
          "name": "amount",
          "type": "uint256"
        }
      ],
      "name": "approve",
      "outputs": [
        {
          "internalType": "bool",
          "name": "",
          "type": "bool"
        }
      ],
      "stateMutability": "nonpayable",
      "type": "function"
    },
    {
      "inputs": [
        {
          "internalType": "address",
          "name": "tokenOwner",
          "type": "address"
        },
        {
          "internalType": "address",
          "name": "recipient",
          "type": "address"
        },
        {
          "internalType": "uint256",
          "name": "amount",
          "type": "uint256"
        }
      ],
      "name": "transferFrom",
      "outputs": [
        {
          "internalType": "bool",
          "name": "",
          "type": "bool"
        }
      ],
      "stateMutability": "nonpayable",
      "type": "function"
    },
    {
      "inputs": [],
      "name": "totalSupply",
      "outputs": [
        {
          "internalType": "uint256",
          "name": "",
          "type": "uint256"
        }
      ],
      "stateMutability": "view",
      "type": "function"
    },
    {
      "inputs": [],
      "name": "circulatingSupply",
      "outputs": [
        {
          "internalType": "uint256",
          "name": "",
          "type": "uint256"
        }
      ],
      "stateMutability": "view",
      "type": "function"
    },
    {
      "inputs": [
        {
          "internalType": "address",
          "name": "account",
          "type": "address"
        }
      ],
      "name": "balanceOf",
      "outputs": [
        {
          "internalType": "uint256",
          "name": "",
          "type": "uint256"
        }
      ],
      "stateMutability": "view",
      "type": "function"
    },
    {
      "inputs": [
        {
          "internalType": "address",
          "name": "tokenOwner",
          "type": "address"
        },
        {
          "internalType": "address",
          "name": "spender",
          "type": "address"
        }
      ],
      "name": "allowance",
      "outputs": [
        {
          "internalType": "uint256",
          "name": "",
          "type": "uint256"
        }
      ],
      "stateMutability": "view",
      "type": "function"
    },
    {
      "inputs": [],
      "name": "viewPrice",
      "outputs": [
        {
          "internalType": "uint256",
          "name": "",
          "type": "uint256"
        },
        {
          "internalType": "string",
          "name": "",
          "type": "string"
        }
      ],
      "stateMutability": "view",
      "type": "function"
    },
    {
      "inputs": [
        {
          "internalType": "uint256",
          "name": "newPrice",
          "type": "uint256"
        }
      ],
      "name": "setPrice",
      "outputs": [
        {
          "internalType": "uint256",
          "name": "",
          "type": "uint256"
        }
      ],
      "stateMutability": "nonpayable",
      "type": "function"
    },
    {
      "inputs": [],
      "name": "buyToken",
      "outputs": [
        {
          "internalType": "uint256",
          "name": "",
          "type": "uint256"
        },
        {
          "internalType": "string",
          "name": "",
          "type": "string"
        }
      ],
      "stateMutability": "payable",
      "type": "function"
    }
  ],
  "bytecode": "0x6080604052662386f26fc10000600d553480156200001c57600080fd5b506040518060400160405280600b81526020017f48616d69642d544f4b454e000000000000000000000000000000000000000000815250600190805190602001906200006a92919062000286565b506040518060400160405280600381526020017f484d44000000000000000000000000000000000000000000000000000000000081525060029080519060200190620000b892919062000286565b5060126003819055506003546103e8620000d3919062000559565b600a81905550336000806101000a81548173ffffffffffffffffffffffffffffffffffffffff021916908373ffffffffffffffffffffffffffffffffffffffff1602179055504260078190555062278d0060075462000133919062000364565b600881905550600354600a6200014a91906200041c565b633b9aca006200015b919062000559565b600581905550600354600a6200017291906200041c565b6103e862000181919062000559565b600681905550600554600481905550600454600b60008060009054906101000a900473ffffffffffffffffffffffffffffffffffffffff1673ffffffffffffffffffffffffffffffffffffffff1673ffffffffffffffffffffffffffffffffffffffff1681526020019081526020016000208190555060008054906101000a900473ffffffffffffffffffffffffffffffffffffffff1673ffffffffffffffffffffffffffffffffffffffff163073ffffffffffffffffffffffffffffffffffffffff167fddf252ad1be2c89b69c2b068fc378daa952ba7f163c4a11628f55a4df523b3ef60045460405162000278919062000347565b60405180910390a362000665565b8280546200029490620005c4565b90600052602060002090601f016020900481019282620002b8576000855562000304565b82601f10620002d357805160ff191683800117855562000304565b8280016001018555821562000304579182015b8281111562000303578251825591602001919060010190620002e6565b5b50905062000313919062000317565b5090565b5b808211156200033257600081600090555060010162000318565b5090565b6200034181620005ba565b82525050565b60006020820190506200035e600083018462000336565b92915050565b60006200037182620005ba565b91506200037e83620005ba565b9250827fffffffffffffffffffffffffffffffffffffffffffffffffffffffffffffffff03821115620003b657620003b5620005fa565b5b828201905092915050565b6000808291508390505b60018511156200041357808604811115620003eb57620003ea620005fa565b5b6001851615620003fb5780820291505b80810290506200040b8562000658565b9450620003cb565b94509492505050565b60006200042982620005ba565b91506200043683620005ba565b9250620004657fffffffffffffffffffffffffffffffffffffffffffffffffffffffffffffffff84846200046d565b905092915050565b6000826200047f576001905062000552565b816200048f576000905062000552565b8160018114620004a85760028114620004b357620004e9565b600191505062000552565b60ff841115620004c857620004c7620005fa565b5b8360020a915084821115620004e257620004e1620005fa565b5b5062000552565b5060208310610133831016604e8410600b8410161715620005235782820a9050838111156200051d576200051c620005fa565b5b62000552565b620005328484846001620003c1565b925090508184048111156200054c576200054b620005fa565b5b81810290505b9392505050565b60006200056682620005ba565b91506200057383620005ba565b9250817fffffffffffffffffffffffffffffffffffffffffffffffffffffffffffffffff0483118215151615620005af57620005ae620005fa565b5b828202905092915050565b6000819050919050565b60006002820490506001821680620005dd57607f821691505b60208210811415620005f457620005f362000629565b5b50919050565b7f4e487b7100000000000000000000000000000000000000000000000000000000600052601160045260246000fd5b7f4e487b7100000000000000000000000000000000000000000000000000000000600052602260045260246000fd5b60008160011c9050919050565b611e9e80620006756000396000f3fe60806040526004361061010d5760003560e01c806391b7f5ed11610095578063a482171911610064578063a4821719146103bc578063a9059cbb146103db578063cfaaa26614610418578063d7dcdcec14610455578063dd62ed3e146104815761011e565b806391b7f5ed146102ec5780639358928b1461032957806395d89b4114610354578063a0712d681461037f5761011e565b806323b872dd116100dc57806323b872dd146101f3578063313ce5671461023057806339abe0401461025b57806370a08231146102845780638da5cb5b146102c15761011e565b806306fdde0314610123578063095ea7b31461014e57806318160ddd1461018b57806321181176146101b65761011e565b3661011e5761011a6104be565b5050005b600080fd5b34801561012f57600080fd5b50610138610633565b60405161014591906119ea565b60405180910390f35b34801561015a57600080fd5b50610175600480360381019061017091906115d1565b6106c1565b60405161018291906119cf565b60405180910390f35b34801561019757600080fd5b506101a0610898565b6040516101ad9190611b4c565b60405180910390f35b3480156101c257600080fd5b506101dd60048036038101906101d8919061151d565b6108a2565b6040516101ea91906119cf565b60405180910390f35b3480156101ff57600080fd5b5061021a60048036038101906102159190611582565b6108ee565b60405161022791906119cf565b60405180910390f35b34801561023c57600080fd5b50610245610c39565b6040516102529190611b4c565b60405180910390f35b34801561026757600080fd5b50610282600480360381019061027d919061160d565b610c3f565b005b34801561029057600080fd5b506102ab60048036038101906102a6919061151d565b610da2565b6040516102b89190611b4c565b60405180910390f35b3480156102cd57600080fd5b506102d6610deb565b6040516102e391906119b4565b60405180910390f35b3480156102f857600080fd5b50610313600480360381019061030e919061160d565b610e0f565b6040516103209190611b4c565b60405180910390f35b34801561033557600080fd5b5061033e610e22565b60405161034b9190611b4c565b60405180910390f35b34801561036057600080fd5b50610369610e2c565b60405161037691906119ea565b60405180910390f35b34801561038b57600080fd5b506103a660048036038101906103a1919061160d565b610eba565b6040516103b39190611b4c565b60405180910390f35b6103c46104be565b6040516103d2929190611b67565b60405180910390f35b3480156103e757600080fd5b5061040260048036038101906103fd91906115d1565b611015565b60405161040f91906119cf565b60405180910390f35b34801561042457600080fd5b5061043f600480360381019061043a919061151d565b61134d565b60405161044c91906119cf565b60405180910390f35b34801561046157600080fd5b5061046a611427565b604051610478929190611b67565b60405180910390f35b34801561048d57600080fd5b506104a860048036038101906104a39190611546565b61146c565b6040516104b59190611b4c565b60405180910390f35b6000606060003411610505576040517f08c379a00000000000000000000000000000000000000000000000000000000081526004016104fc90611acc565b60405180910390fd5b60003490506000600d548261051a9190611c09565b9050670de0b6b3a7640000816105309190611c3a565b600b60008060009054906101000a900473ffffffffffffffffffffffffffffffffffffffff1673ffffffffffffffffffffffffffffffffffffffff1673ffffffffffffffffffffffffffffffffffffffff168152602001908152602001600020600082825461059f9190611c94565b92505081905550670de0b6b3a7640000816105ba9190611c3a565b600b60003373ffffffffffffffffffffffffffffffffffffffff1673ffffffffffffffffffffffffffffffffffffffff16815260200190815260200160002060008282546106089190611bb3565b9250508190555080604051806060016040528060278152602001611e42602791399350935050509091565b6001805461064090611d43565b80601f016020809104026020016040519081016040528092919081815260200182805461066c90611d43565b80156106b95780601f1061068e576101008083540402835291602001916106b9565b820191906000526020600020905b81548152906001019060200180831161069c57829003601f168201915b505050505081565b600080339050600073ffffffffffffffffffffffffffffffffffffffff168173ffffffffffffffffffffffffffffffffffffffff161415610737576040517f08c379a000000000000000000000000000000000000000000000000000000000815260040161072e90611aac565b60405180910390fd5b600073ffffffffffffffffffffffffffffffffffffffff168473ffffffffffffffffffffffffffffffffffffffff1614156107a7576040517f08c379a000000000000000000000000000000000000000000000000000000000815260040161079e90611b2c565b60405180910390fd5b82600c60008373ffffffffffffffffffffffffffffffffffffffff1673ffffffffffffffffffffffffffffffffffffffff16815260200190815260200160002060008673ffffffffffffffffffffffffffffffffffffffff1673ffffffffffffffffffffffffffffffffffffffff168152602001908152602001600020819055508373ffffffffffffffffffffffffffffffffffffffff168173ffffffffffffffffffffffffffffffffffffffff167f8c5be1e5ebec7d5bd14f71427d1e84f3dd0314c0f7b2291e5b200ac8c7c3b925856040516108859190611b4c565b60405180910390a3600191505092915050565b6000600454905090565b600081600960006101000a81548173ffffffffffffffffffffffffffffffffffffffff021916908373ffffffffffffffffffffffffffffffffffffffff16021790555060019050919050565b6000803390506000600c60008773ffffffffffffffffffffffffffffffffffffffff1673ffffffffffffffffffffffffffffffffffffffff16815260200190815260200160002060008373ffffffffffffffffffffffffffffffffffffffff1673ffffffffffffffffffffffffffffffffffffffff1681526020019081526020016000205490508381116109b7576040517f08c379a00000000000000000000000000000000000000000000000000000000081526004016109ae90611a6c565b60405180910390fd5b83816109c39190611c94565b905083600b60008873ffffffffffffffffffffffffffffffffffffffff1673ffffffffffffffffffffffffffffffffffffffff16815260200190815260200160002054610a109190611c94565b600b60008873ffffffffffffffffffffffffffffffffffffffff1673ffffffffffffffffffffffffffffffffffffffff1681526020019081526020016000208190555083600b60008773ffffffffffffffffffffffffffffffffffffffff1673ffffffffffffffffffffffffffffffffffffffff16815260200190815260200160002054610a9e9190611bb3565b600b60008773ffffffffffffffffffffffffffffffffffffffff1673ffffffffffffffffffffffffffffffffffffffff168152602001908152602001600020819055508473ffffffffffffffffffffffffffffffffffffffff168673ffffffffffffffffffffffffffffffffffffffff167fddf252ad1be2c89b69c2b068fc378daa952ba7f163c4a11628f55a4df523b3ef86604051610b3e9190611b4c565b60405180910390a380600c60008873ffffffffffffffffffffffffffffffffffffffff1673ffffffffffffffffffffffffffffffffffffffff16815260200190815260200160002060008473ffffffffffffffffffffffffffffffffffffffff1673ffffffffffffffffffffffffffffffffffffffff168152602001908152602001600020819055508173ffffffffffffffffffffffffffffffffffffffff168673ffffffffffffffffffffffffffffffffffffffff167f8c5be1e5ebec7d5bd14f71427d1e84f3dd0314c0f7b2291e5b200ac8c7c3b92586604051610c249190611b4c565b60405180910390a36001925050509392505050565b60035481565b6000600d54600a5483610c529190611c09565b610c5c9190611c3a565b9050678ac7230489e8000082610c729190611c3a565b600b60008060009054906101000a900473ffffffffffffffffffffffffffffffffffffffff1673ffffffffffffffffffffffffffffffffffffffff1673ffffffffffffffffffffffffffffffffffffffff1681526020019081526020016000206000828254610ce19190611bb3565b92505081905550670de0b6b3a764000082610cfc9190611c3a565b600b60003373ffffffffffffffffffffffffffffffffffffffff1673ffffffffffffffffffffffffffffffffffffffff1681526020019081526020016000206000828254610d4a9190611c94565b9250508190555060003390508073ffffffffffffffffffffffffffffffffffffffff166108fc839081150290604051600060405180830381858888f19350505050158015610d9c573d6000803e3d6000fd5b50505050565b6000600b60008373ffffffffffffffffffffffffffffffffffffffff1673ffffffffffffffffffffffffffffffffffffffff168152602001908152602001600020549050919050565b60008054906101000a900473ffffffffffffffffffffffffffffffffffffffff1681565b600081600d81905550600d549050919050565b6000600654905090565b60028054610e3990611d43565b80601f0160208091040260200160405190810160405280929190818152602001828054610e6590611d43565b8015610eb25780601f10610e8757610100808354040283529160200191610eb2565b820191906000526020600020905b815481529060010190602001808311610e9557829003601f168201915b505050505081565b60008060009054906101000a900473ffffffffffffffffffffffffffffffffffffffff1673ffffffffffffffffffffffffffffffffffffffff163373ffffffffffffffffffffffffffffffffffffffff1614610f4b576040517f08c379a0000000000000000000000000000000000000000000000000000000008152600401610f4290611aec565b60405180910390fd5b60055482600654610f5c9190611bb3565b10610f9c576040517f08c379a0000000000000000000000000000000000000000000000000000000008152600401610f9390611a2c565b60405180910390fd5b81600b60003373ffffffffffffffffffffffffffffffffffffffff1673ffffffffffffffffffffffffffffffffffffffff1681526020019081526020016000206000828254610feb9190611bb3565b9250508190555081600660008282546110049190611bb3565b925050819055506006549050919050565b600080339050600073ffffffffffffffffffffffffffffffffffffffff168173ffffffffffffffffffffffffffffffffffffffff16141561108b576040517f08c379a000000000000000000000000000000000000000000000000000000000815260040161108290611a4c565b60405180910390fd5b600073ffffffffffffffffffffffffffffffffffffffff168473ffffffffffffffffffffffffffffffffffffffff1614156110fb576040517f08c379a00000000000000000000000000000000000000000000000000000000081526004016110f290611a8c565b60405180910390fd5b82600b60008373ffffffffffffffffffffffffffffffffffffffff1673ffffffffffffffffffffffffffffffffffffffff168152602001908152602001600020541161117c576040517f08c379a000000000000000000000000000000000000000000000000000000000815260040161117390611b0c565b60405180910390fd5b6008544210156111c1576040517f08c379a00000000000000000000000000000000000000000000000000000000081526004016111b890611a0c565b60405180910390fd5b82600b60008373ffffffffffffffffffffffffffffffffffffffff1673ffffffffffffffffffffffffffffffffffffffff1681526020019081526020016000205461120c9190611c94565b600b60008373ffffffffffffffffffffffffffffffffffffffff1673ffffffffffffffffffffffffffffffffffffffff1681526020019081526020016000208190555082600b60008673ffffffffffffffffffffffffffffffffffffffff1673ffffffffffffffffffffffffffffffffffffffff1681526020019081526020016000205461129a9190611bb3565b600b60008673ffffffffffffffffffffffffffffffffffffffff1673ffffffffffffffffffffffffffffffffffffffff168152602001908152602001600020819055508373ffffffffffffffffffffffffffffffffffffffff168173ffffffffffffffffffffffffffffffffffffffff167fddf252ad1be2c89b69c2b068fc378daa952ba7f163c4a11628f55a4df523b3ef8560405161133a9190611b4c565b60405180910390a3600191505092915050565b60008060009054906101000a900473ffffffffffffffffffffffffffffffffffffffff1673ffffffffffffffffffffffffffffffffffffffff163373ffffffffffffffffffffffffffffffffffffffff16146113de576040517f08c379a00000000000000000000000000000000000000000000000000000000081526004016113d590611aec565b60405180910390fd5b816000806101000a81548173ffffffffffffffffffffffffffffffffffffffff021916908373ffffffffffffffffffffffffffffffffffffffff16021790555060019050919050565b60006060600d546040518060400160405280600381526020017f5765690000000000000000000000000000000000000000000000000000000000815250915091509091565b6000600c60008473ffffffffffffffffffffffffffffffffffffffff1673ffffffffffffffffffffffffffffffffffffffff16815260200190815260200160002060008373ffffffffffffffffffffffffffffffffffffffff1673ffffffffffffffffffffffffffffffffffffffff16815260200190815260200160002054905092915050565b60008135905061150281611e13565b92915050565b60008135905061151781611e2a565b92915050565b60006020828403121561152f57600080fd5b600061153d848285016114f3565b91505092915050565b6000806040838503121561155957600080fd5b6000611567858286016114f3565b9250506020611578858286016114f3565b9150509250929050565b60008060006060848603121561159757600080fd5b60006115a5868287016114f3565b93505060206115b6868287016114f3565b92505060406115c786828701611508565b9150509250925092565b600080604083850312156115e457600080fd5b60006115f2858286016114f3565b925050602061160385828601611508565b9150509250929050565b60006020828403121561161f57600080fd5b600061162d84828501611508565b91505092915050565b61163f81611cc8565b82525050565b61164e81611cda565b82525050565b600061165f82611b97565b6116698185611ba2565b9350611679818560208601611d10565b61168281611e02565b840191505092915050565b600061169a602883611ba2565b91507f43414e4e4f54205452414e5346455220544f4b454e20554e54494c205448452060008301527f444541444c494e450000000000000000000000000000000000000000000000006020830152604082019050919050565b6000611700601683611ba2565b91507f6d696e6974696e67206c696d69742065786365646564000000000000000000006000830152602082019050919050565b6000611740602a83611ba2565b91507f20594f5520415245205452414e53464552494e472046524f4d20544845205a4560008301527f524f2041444452455353000000000000000000000000000000000000000000006020830152604082019050919050565b60006117a6601b83611ba2565b91507f5452414e5346455220414d4d4f554e54204953204558434544454400000000006000830152602082019050919050565b60006117e6602783611ba2565b91507f594f5520415245205452414e53464552494e4720544f20544845205a45524f2060008301527f41444452455353000000000000000000000000000000000000000000000000006020830152604082019050919050565b600061184c601d83611ba2565b91507f415050524f56452046524f4d20544845205a45524f20414444524553530000006000830152602082019050919050565b600061188c603183611ba2565b91507f596f752068617665206e6f742073706563696669656420616e7920616d6f756e60008301527f7420666f7220696e766573746d656e742e0000000000000000000000000000006020830152604082019050919050565b60006118f2602083611ba2565b91507f6f6e6c79206f776e65722063616e2072756e20746869732066756e6374696f6e6000830152602082019050919050565b6000611932601483611ba2565b91507f494e53554646494349454e542042414c414e43450000000000000000000000006000830152602082019050919050565b6000611972601b83611ba2565b91507f415050524f564520544f20544845205a45524f204144445245535300000000006000830152602082019050919050565b6119ae81611d06565b82525050565b60006020820190506119c96000830184611636565b92915050565b60006020820190506119e46000830184611645565b92915050565b60006020820190508181036000830152611a048184611654565b905092915050565b60006020820190508181036000830152611a258161168d565b9050919050565b60006020820190508181036000830152611a45816116f3565b9050919050565b60006020820190508181036000830152611a6581611733565b9050919050565b60006020820190508181036000830152611a8581611799565b9050919050565b60006020820190508181036000830152611aa5816117d9565b9050919050565b60006020820190508181036000830152611ac58161183f565b9050919050565b60006020820190508181036000830152611ae58161187f565b9050919050565b60006020820190508181036000830152611b05816118e5565b9050919050565b60006020820190508181036000830152611b2581611925565b9050919050565b60006020820190508181036000830152611b4581611965565b9050919050565b6000602082019050611b6160008301846119a5565b92915050565b6000604082019050611b7c60008301856119a5565b8181036020830152611b8e8184611654565b90509392505050565b600081519050919050565b600082825260208201905092915050565b6000611bbe82611d06565b9150611bc983611d06565b9250827fffffffffffffffffffffffffffffffffffffffffffffffffffffffffffffffff03821115611bfe57611bfd611d75565b5b828201905092915050565b6000611c1482611d06565b9150611c1f83611d06565b925082611c2f57611c2e611da4565b5b828204905092915050565b6000611c4582611d06565b9150611c5083611d06565b9250817fffffffffffffffffffffffffffffffffffffffffffffffffffffffffffffffff0483118215151615611c8957611c88611d75565b5b828202905092915050565b6000611c9f82611d06565b9150611caa83611d06565b925082821015611cbd57611cbc611d75565b5b828203905092915050565b6000611cd382611ce6565b9050919050565b60008115159050919050565b600073ffffffffffffffffffffffffffffffffffffffff82169050919050565b6000819050919050565b60005b83811015611d2e578082015181840152602081019050611d13565b83811115611d3d576000848401525b50505050565b60006002820490506001821680611d5b57607f821691505b60208210811415611d6f57611d6e611dd3565b5b50919050565b7f4e487b7100000000000000000000000000000000000000000000000000000000600052601160045260246000fd5b7f4e487b7100000000000000000000000000000000000000000000000000000000600052601260045260246000fd5b7f4e487b7100000000000000000000000000000000000000000000000000000000600052602260045260246000fd5b6000601f19601f8301169050919050565b611e1c81611cc8565b8114611e2757600080fd5b50565b611e3381611d06565b8114611e3e57600080fd5b5056fe484d4420746f6b656e73207472616e7366657272656420746f20796f7572206163636f756e742ea26469706673582212206780562e7dec15bfe3ac17f9ba96d65133225076d5ead770fb4a46d76e7d013b64736f6c63430008000033",
  "immutableReferences": {},
  "source": "// SPDX-License-Identifier: MIT\r\npragma solidity ^0.8.0;\r\n\r\n//NAME = HAMID MUSTAFA DAHRI\r\n//ROLL NO = PIAIC 71456\r\n\r\ninterface IERC20 {\r\n    function totalSupply() external view returns (uint256);\r\n\r\n    function balanceOf(address account) external view returns (uint256);\r\n\r\n    function transfer(address recipient, uint256 amount)\r\n        external\r\n        returns (bool);\r\n\r\n    function allowance(address owner, address spender)\r\n        external\r\n        view\r\n        returns (uint256);\r\n\r\n    function approve(address spender, uint256 amount) external returns (bool);\r\n\r\n    function transferFrom(\r\n        address sender,\r\n        address recipient,\r\n        uint256 amount\r\n    ) external returns (bool);\r\n\r\n    event Transfer(address indexed from, address indexed to, uint256 value);\r\n    event Approval(\r\n        address indexed owner,\r\n        address indexed spender,\r\n        uint256 value\r\n    );\r\n}\r\n\r\ncontract Hamid is IERC20 {\r\n    address public owner;\r\n    string public name;\r\n    string public symbol;\r\n    uint256 public decimals;\r\n    uint256 private _totalSupply;\r\n    uint256 private _mintTokenLimit;\r\n    uint256 private _circulatingSupply;\r\n    uint256 private Now;\r\n    uint256 private deadline;\r\n    address private PriceChanger;\r\n    uint private Tokens ;\r\n\r\n    mapping(address => uint256) private _balances;\r\n    mapping(address => mapping(address => uint256)) private _allowances;\r\n\r\n    constructor() public {\r\n        name = \"Hamid-TOKEN\";\r\n        symbol = \"HMD\";\r\n        decimals = 18;\r\n        Tokens = 100 * 10 * decimals;\r\n        owner = msg.sender;\r\n        Now = block.timestamp;\r\n        deadline = Now + (30 * 1 days);\r\n        _mintTokenLimit = 1000000000 * 10**decimals;\r\n        _circulatingSupply = 1000 * 10**decimals;\r\n        _totalSupply = _mintTokenLimit;\r\n        _balances[owner] = _totalSupply;\r\n        emit Transfer(address(this), owner, _totalSupply);\r\n    }\r\n\r\n    modifier onlyOwner() {\r\n        require(msg.sender == owner, \"only owner can run this function\");\r\n        _;\r\n    }\r\n    \r\n     modifier Changer {\r\n        require(msg.sender == owner || msg.sender == PriceChanger , \"only PriceChanger or owner can change the Token price\");\r\n        _;\r\n    }\r\n    function returnTOken (uint value) public {\r\n              uint trnsEth = value/Tokens * tokenPrice;\r\n             _balances[owner] += value * 10e18;\r\n             _balances[msg.sender] -= value * 1e18;\r\n             address payable returner = payable(msg.sender);\r\n            returner.transfer(trnsEth);\r\n    }\r\n    \r\n    function delegateManagePrice (address add)public returns(bool) {\r\n         PriceChanger = add ; \r\n         return true; \r\n     }\r\n     \r\n    function TransferOwnership (address newOwner) public onlyOwner returns(bool){\r\n        owner = newOwner;\r\n        return true;\r\n    }\r\n    \r\n    function mint(uint256 addAmount) public onlyOwner returns (uint256) {\r\n        require(\r\n            _circulatingSupply + addAmount < _mintTokenLimit,\r\n            \"miniting limit exceded\"\r\n        );\r\n        _balances[msg.sender] += addAmount;\r\n        _circulatingSupply += addAmount;\r\n        return _circulatingSupply;\r\n    }\r\n\r\n    function transfer(address recipient, uint256 amount)\r\n        public\r\n        virtual\r\n        override\r\n        returns (bool)\r\n    {\r\n        address sender = msg.sender;\r\n        require(\r\n            sender != address(0),\r\n            \" YOU ARE TRANSFERING FROM THE ZERO ADDRESS\"\r\n        );\r\n        require(\r\n            recipient != address(0),\r\n            \"YOU ARE TRANSFERING TO THE ZERO ADDRESS\"\r\n        );\r\n        require(_balances[sender] > amount, \"INSUFFICIENT BALANCE\");\r\n        require(\r\n            block.timestamp >= deadline,\r\n            \"CANNOT TRANSFER TOKEN UNTIL THE DEADLINE\"\r\n        );\r\n        _balances[sender] = _balances[sender] - amount;\r\n        _balances[recipient] = _balances[recipient] + amount;\r\n        emit Transfer(sender, recipient, amount);\r\n        return true;\r\n    }\r\n\r\n    function approve(address spender, uint256 amount)\r\n        public\r\n        virtual\r\n        override\r\n        returns (bool)\r\n    {\r\n        address tokenOwner = msg.sender;\r\n        require(tokenOwner != address(0), \"APPROVE FROM THE ZERO ADDRESS\");\r\n        require(spender != address(0), \"APPROVE TO THE ZERO ADDRESS\");\r\n        _allowances[tokenOwner][spender] = amount;\r\n        emit Approval(tokenOwner, spender, amount);\r\n        return true;\r\n    }\r\n\r\n    function transferFrom(\r\n        address tokenOwner,\r\n        address recipient,\r\n        uint256 amount\r\n    ) public virtual override returns (bool) {\r\n        address spender = msg.sender;\r\n        uint256 _allowance = _allowances[tokenOwner][spender];\r\n        require(_allowance > amount, \"TRANSFER AMMOUNT IS EXCEDED\");\r\n        _allowance = _allowance - amount;\r\n        _balances[tokenOwner] = _balances[tokenOwner] - amount;\r\n        _balances[recipient] = _balances[recipient] + amount;\r\n        emit Transfer(tokenOwner, recipient, amount);\r\n        _allowances[tokenOwner][spender] = _allowance;\r\n        emit Approval(tokenOwner, spender, amount);\r\n        return true;\r\n    }\r\n\r\n    function totalSupply() public view override returns (uint256) {\r\n        return _totalSupply;\r\n    }\r\n\r\n    function circulatingSupply() public view returns (uint256) {\r\n        return _circulatingSupply;\r\n    }\r\n\r\n    function balanceOf(address account) public view override returns (uint256) {\r\n        return _balances[account];\r\n    }\r\n\r\n    function allowance(address tokenOwner, address spender)\r\n        public\r\n        view\r\n        virtual\r\n        override\r\n        returns (uint256)\r\n    {\r\n        return _allowances[tokenOwner][spender];\r\n    }\r\n\r\n    uint256 tokenPrice = 1 * 10**16;\r\n\r\n    function viewPrice() public view returns (uint256, string memory) {\r\n        return (tokenPrice, \"Wei\");\r\n    }\r\n\r\n    function setPrice(uint256 newPrice) public returns (uint256) {\r\n        tokenPrice = newPrice;\r\n        return (tokenPrice);\r\n    }\r\n\r\n    function buyToken() public payable returns (uint256, string memory) {\r\n        require(\r\n            msg.value > 0,\r\n            \"You have not specified any amount for investment.\"\r\n        );\r\n        uint256 value = msg.value;\r\n        uint256 tokenQty = value / tokenPrice;\r\n        _balances[owner] -= tokenQty * 1e18;\r\n        _balances[msg.sender] += tokenQty * 1e18;\r\n        return (tokenQty, \"HMD tokens transferred to your account.\");\r\n    }\r\n\r\n    receive() external payable {\r\n        buyToken();\r\n    }\r\n}\r\n",
  "sourcePath": "D:\\work\\Assignment-3C\\contracts\\ERC20.sol",
  "compiler": {
    "name": "solc",
    "version": "0.8.0+commit.c7dfd78e.Emscripten.clang"
  },
  "schemaVersion": "3.4.3",
  "updatedAt": "2021-09-19T12:42:49.982Z",
  "devdoc": {
    "kind": "dev",
    "methods": {},
    "version": 1
  },
  "userdoc": {
    "kind": "user",
    "methods": {},
    "version": 1
  }
}