{
  "contractName": "Hamid",
  "abi": [
    {
      "inputs": [],
      "stateMutability": "nonpayable",
      "type": "constructor"
    },
    {
      "anonymous": false,
      "inputs": [
        {
          "indexed": true,
          "internalType": "address",
          "name": "owner",
          "type": "address"
        },
        {
          "indexed": true,
          "internalType": "address",
          "name": "spender",
          "type": "address"
        },
        {
          "indexed": false,
          "internalType": "uint256",
          "name": "value",
          "type": "uint256"
        }
      ],
      "name": "Approval",
      "type": "event"
    },
    {
      "anonymous": false,
      "inputs": [
        {
          "indexed": true,
          "internalType": "address",
          "name": "from",
          "type": "address"
        },
        {
          "indexed": true,
          "internalType": "address",
          "name": "to",
          "type": "address"
        },
        {
          "indexed": false,
          "internalType": "uint256",
          "name": "value",
          "type": "uint256"
        }
      ],
      "name": "Transfer",
      "type": "event"
    },
    {
      "inputs": [],
      "name": "decimals",
      "outputs": [
        {
          "internalType": "uint256",
          "name": "",
          "type": "uint256"
        }
      ],
      "stateMutability": "view",
      "type": "function",
      "constant": true
    },
    {
      "inputs": [],
      "name": "name",
      "outputs": [
        {
          "internalType": "string",
          "name": "",
          "type": "string"
        }
      ],
      "stateMutability": "view",
      "type": "function",
      "constant": true
    },
    {
      "inputs": [],
      "name": "owner",
      "outputs": [
        {
          "internalType": "address",
          "name": "",
          "type": "address"
        }
      ],
      "stateMutability": "view",
      "type": "function",
      "constant": true
    },
    {
      "inputs": [],
      "name": "symbol",
      "outputs": [
        {
          "internalType": "string",
          "name": "",
          "type": "string"
        }
      ],
      "stateMutability": "view",
      "type": "function",
      "constant": true
    },
    {
      "inputs": [
        {
          "internalType": "uint256",
          "name": "addAmount",
          "type": "uint256"
        }
      ],
      "name": "mint",
      "outputs": [
        {
          "internalType": "uint256",
          "name": "",
          "type": "uint256"
        }
      ],
      "stateMutability": "nonpayable",
      "type": "function"
    },
    {
      "inputs": [
        {
          "internalType": "address",
          "name": "recipient",
          "type": "address"
        },
        {
          "internalType": "uint256",
          "name": "amount",
          "type": "uint256"
        }
      ],
      "name": "transfer",
      "outputs": [
        {
          "internalType": "bool",
          "name": "",
          "type": "bool"
        }
      ],
      "stateMutability": "nonpayable",
      "type": "function"
    },
    {
      "inputs": [
        {
          "internalType": "address",
          "name": "spender",
          "type": "address"
        },
        {
          "internalType": "uint256",
          "name": "amount",
          "type": "uint256"
        }
      ],
      "name": "approve",
      "outputs": [
        {
          "internalType": "bool",
          "name": "",
          "type": "bool"
        }
      ],
      "stateMutability": "nonpayable",
      "type": "function"
    },
    {
      "inputs": [
        {
          "internalType": "address",
          "name": "tokenOwner",
          "type": "address"
        },
        {
          "internalType": "address",
          "name": "recipient",
          "type": "address"
        },
        {
          "internalType": "uint256",
          "name": "amount",
          "type": "uint256"
        }
      ],
      "name": "transferFrom",
      "outputs": [
        {
          "internalType": "bool",
          "name": "",
          "type": "bool"
        }
      ],
      "stateMutability": "nonpayable",
      "type": "function"
    },
    {
      "inputs": [],
      "name": "totalSupply",
      "outputs": [
        {
          "internalType": "uint256",
          "name": "",
          "type": "uint256"
        }
      ],
      "stateMutability": "view",
      "type": "function",
      "constant": true
    },
    {
      "inputs": [],
      "name": "circulatingSupply",
      "outputs": [
        {
          "internalType": "uint256",
          "name": "",
          "type": "uint256"
        }
      ],
      "stateMutability": "view",
      "type": "function",
      "constant": true
    },
    {
      "inputs": [
        {
          "internalType": "address",
          "name": "account",
          "type": "address"
        }
      ],
      "name": "balanceOf",
      "outputs": [
        {
          "internalType": "uint256",
          "name": "",
          "type": "uint256"
        }
      ],
      "stateMutability": "view",
      "type": "function",
      "constant": true
    },
    {
      "inputs": [
        {
          "internalType": "address",
          "name": "tokenOwner",
          "type": "address"
        },
        {
          "internalType": "address",
          "name": "spender",
          "type": "address"
        }
      ],
      "name": "allowance",
      "outputs": [
        {
          "internalType": "uint256",
          "name": "",
          "type": "uint256"
        }
      ],
      "stateMutability": "view",
      "type": "function",
      "constant": true
    }
  ],
  "bytecode": "0x60806040523480156200001157600080fd5b506040518060400160405280600b81526020017f48616d69642d544f4b454e000000000000000000000000000000000000000000815250600190805190602001906200005f92919062000263565b506040518060400160405280600381526020017f484d44000000000000000000000000000000000000000000000000000000000081525060029080519060200190620000ad92919062000263565b506012600381905550336000806101000a81548173ffffffffffffffffffffffffffffffffffffffff021916908373ffffffffffffffffffffffffffffffffffffffff1602179055504260078190555062278d0060075462000110919062000341565b600881905550600354600a620001279190620003f9565b633b9aca0062000138919062000536565b600581905550600354600a6200014f9190620003f9565b6103e86200015e919062000536565b600681905550600554600481905550600454600960008060009054906101000a900473ffffffffffffffffffffffffffffffffffffffff1673ffffffffffffffffffffffffffffffffffffffff1673ffffffffffffffffffffffffffffffffffffffff1681526020019081526020016000208190555060008054906101000a900473ffffffffffffffffffffffffffffffffffffffff1673ffffffffffffffffffffffffffffffffffffffff163073ffffffffffffffffffffffffffffffffffffffff167fddf252ad1be2c89b69c2b068fc378daa952ba7f163c4a11628f55a4df523b3ef60045460405162000255919062000324565b60405180910390a362000642565b8280546200027190620005a1565b90600052602060002090601f016020900481019282620002955760008555620002e1565b82601f10620002b057805160ff1916838001178555620002e1565b82800160010185558215620002e1579182015b82811115620002e0578251825591602001919060010190620002c3565b5b509050620002f09190620002f4565b5090565b5b808211156200030f576000816000905550600101620002f5565b5090565b6200031e8162000597565b82525050565b60006020820190506200033b600083018462000313565b92915050565b60006200034e8262000597565b91506200035b8362000597565b9250827fffffffffffffffffffffffffffffffffffffffffffffffffffffffffffffffff03821115620003935762000392620005d7565b5b828201905092915050565b6000808291508390505b6001851115620003f057808604811115620003c857620003c7620005d7565b5b6001851615620003d85780820291505b8081029050620003e88562000635565b9450620003a8565b94509492505050565b6000620004068262000597565b9150620004138362000597565b9250620004427fffffffffffffffffffffffffffffffffffffffffffffffffffffffffffffffff84846200044a565b905092915050565b6000826200045c57600190506200052f565b816200046c57600090506200052f565b81600181146200048557600281146200049057620004c6565b60019150506200052f565b60ff841115620004a557620004a4620005d7565b5b8360020a915084821115620004bf57620004be620005d7565b5b506200052f565b5060208310610133831016604e8410600b8410161715620005005782820a905083811115620004fa57620004f9620005d7565b5b6200052f565b6200050f84848460016200039e565b92509050818404811115620005295762000528620005d7565b5b81810290505b9392505050565b6000620005438262000597565b9150620005508362000597565b9250817fffffffffffffffffffffffffffffffffffffffffffffffffffffffffffffffff04831182151516156200058c576200058b620005d7565b5b828202905092915050565b6000819050919050565b60006002820490506001821680620005ba57607f821691505b60208210811415620005d157620005d062000606565b5b50919050565b7f4e487b7100000000000000000000000000000000000000000000000000000000600052601160045260246000fd5b7f4e487b7100000000000000000000000000000000000000000000000000000000600052602260045260246000fd5b60008160011c9050919050565b61168080620006526000396000f3fe608060405234801561001057600080fd5b50600436106100b45760003560e01c80638da5cb5b116100715780638da5cb5b146101a35780639358928b146101c157806395d89b41146101df578063a0712d68146101fd578063a9059cbb1461022d578063dd62ed3e1461025d576100b4565b806306fdde03146100b9578063095ea7b3146100d757806318160ddd1461010757806323b872dd14610125578063313ce5671461015557806370a0823114610173575b600080fd5b6100c161028d565b6040516100ce91906112fd565b60405180910390f35b6100f160048036038101906100ec9190610f4a565b61031b565b6040516100fe91906112e2565b60405180910390f35b61010f6104f2565b60405161011c919061143f565b60405180910390f35b61013f600480360381019061013a9190610efb565b6104fc565b60405161014c91906112e2565b60405180910390f35b61015d610847565b60405161016a919061143f565b60405180910390f35b61018d60048036038101906101889190610e96565b61084d565b60405161019a919061143f565b60405180910390f35b6101ab610896565b6040516101b891906112c7565b60405180910390f35b6101c96108ba565b6040516101d6919061143f565b60405180910390f35b6101e76108c4565b6040516101f491906112fd565b60405180910390f35b61021760048036038101906102129190610f86565b610952565b604051610224919061143f565b60405180910390f35b61024760048036038101906102429190610f4a565b610aad565b60405161025491906112e2565b60405180910390f35b61027760048036038101906102729190610ebf565b610de5565b604051610284919061143f565b60405180910390f35b6001805461029a9061157b565b80601f01602080910402602001604051908101604052809291908181526020018280546102c69061157b565b80156103135780601f106102e857610100808354040283529160200191610313565b820191906000526020600020905b8154815290600101906020018083116102f657829003601f168201915b505050505081565b600080339050600073ffffffffffffffffffffffffffffffffffffffff168173ffffffffffffffffffffffffffffffffffffffff161415610391576040517f08c379a0000000000000000000000000000000000000000000000000000000008152600401610388906113bf565b60405180910390fd5b600073ffffffffffffffffffffffffffffffffffffffff168473ffffffffffffffffffffffffffffffffffffffff161415610401576040517f08c379a00000000000000000000000000000000000000000000000000000000081526004016103f89061141f565b60405180910390fd5b82600a60008373ffffffffffffffffffffffffffffffffffffffff1673ffffffffffffffffffffffffffffffffffffffff16815260200190815260200160002060008673ffffffffffffffffffffffffffffffffffffffff1673ffffffffffffffffffffffffffffffffffffffff168152602001908152602001600020819055508373ffffffffffffffffffffffffffffffffffffffff168173ffffffffffffffffffffffffffffffffffffffff167f8c5be1e5ebec7d5bd14f71427d1e84f3dd0314c0f7b2291e5b200ac8c7c3b925856040516104df919061143f565b60405180910390a3600191505092915050565b6000600454905090565b6000803390506000600a60008773ffffffffffffffffffffffffffffffffffffffff1673ffffffffffffffffffffffffffffffffffffffff16815260200190815260200160002060008373ffffffffffffffffffffffffffffffffffffffff1673ffffffffffffffffffffffffffffffffffffffff1681526020019081526020016000205490508381116105c5576040517f08c379a00000000000000000000000000000000000000000000000000000000081526004016105bc9061137f565b60405180910390fd5b83816105d191906114cc565b905083600960008873ffffffffffffffffffffffffffffffffffffffff1673ffffffffffffffffffffffffffffffffffffffff1681526020019081526020016000205461061e91906114cc565b600960008873ffffffffffffffffffffffffffffffffffffffff1673ffffffffffffffffffffffffffffffffffffffff1681526020019081526020016000208190555083600960008773ffffffffffffffffffffffffffffffffffffffff1673ffffffffffffffffffffffffffffffffffffffff168152602001908152602001600020546106ac9190611476565b600960008773ffffffffffffffffffffffffffffffffffffffff1673ffffffffffffffffffffffffffffffffffffffff168152602001908152602001600020819055508473ffffffffffffffffffffffffffffffffffffffff168673ffffffffffffffffffffffffffffffffffffffff167fddf252ad1be2c89b69c2b068fc378daa952ba7f163c4a11628f55a4df523b3ef8660405161074c919061143f565b60405180910390a380600a60008873ffffffffffffffffffffffffffffffffffffffff1673ffffffffffffffffffffffffffffffffffffffff16815260200190815260200160002060008473ffffffffffffffffffffffffffffffffffffffff1673ffffffffffffffffffffffffffffffffffffffff168152602001908152602001600020819055508173ffffffffffffffffffffffffffffffffffffffff168673ffffffffffffffffffffffffffffffffffffffff167f8c5be1e5ebec7d5bd14f71427d1e84f3dd0314c0f7b2291e5b200ac8c7c3b92586604051610832919061143f565b60405180910390a36001925050509392505050565b60035481565b6000600960008373ffffffffffffffffffffffffffffffffffffffff1673ffffffffffffffffffffffffffffffffffffffff168152602001908152602001600020549050919050565b60008054906101000a900473ffffffffffffffffffffffffffffffffffffffff1681565b6000600654905090565b600280546108d19061157b565b80601f01602080910402602001604051908101604052809291908181526020018280546108fd9061157b565b801561094a5780601f1061091f5761010080835404028352916020019161094a565b820191906000526020600020905b81548152906001019060200180831161092d57829003601f168201915b505050505081565b60008060009054906101000a900473ffffffffffffffffffffffffffffffffffffffff1673ffffffffffffffffffffffffffffffffffffffff163373ffffffffffffffffffffffffffffffffffffffff16146109e3576040517f08c379a00000000000000000000000000000000000000000000000000000000081526004016109da906113df565b60405180910390fd5b600554826006546109f49190611476565b10610a34576040517f08c379a0000000000000000000000000000000000000000000000000000000008152600401610a2b9061133f565b60405180910390fd5b81600960003373ffffffffffffffffffffffffffffffffffffffff1673ffffffffffffffffffffffffffffffffffffffff1681526020019081526020016000206000828254610a839190611476565b925050819055508160066000828254610a9c9190611476565b925050819055506006549050919050565b600080339050600073ffffffffffffffffffffffffffffffffffffffff168173ffffffffffffffffffffffffffffffffffffffff161415610b23576040517f08c379a0000000000000000000000000000000000000000000000000000000008152600401610b1a9061135f565b60405180910390fd5b600073ffffffffffffffffffffffffffffffffffffffff168473ffffffffffffffffffffffffffffffffffffffff161415610b93576040517f08c379a0000000000000000000000000000000000000000000000000000000008152600401610b8a9061139f565b60405180910390fd5b82600960008373ffffffffffffffffffffffffffffffffffffffff1673ffffffffffffffffffffffffffffffffffffffff1681526020019081526020016000205411610c14576040517f08c379a0000000000000000000000000000000000000000000000000000000008152600401610c0b906113ff565b60405180910390fd5b600854421015610c59576040517f08c379a0000000000000000000000000000000000000000000000000000000008152600401610c509061131f565b60405180910390fd5b82600960008373ffffffffffffffffffffffffffffffffffffffff1673ffffffffffffffffffffffffffffffffffffffff16815260200190815260200160002054610ca491906114cc565b600960008373ffffffffffffffffffffffffffffffffffffffff1673ffffffffffffffffffffffffffffffffffffffff1681526020019081526020016000208190555082600960008673ffffffffffffffffffffffffffffffffffffffff1673ffffffffffffffffffffffffffffffffffffffff16815260200190815260200160002054610d329190611476565b600960008673ffffffffffffffffffffffffffffffffffffffff1673ffffffffffffffffffffffffffffffffffffffff168152602001908152602001600020819055508373ffffffffffffffffffffffffffffffffffffffff168173ffffffffffffffffffffffffffffffffffffffff167fddf252ad1be2c89b69c2b068fc378daa952ba7f163c4a11628f55a4df523b3ef85604051610dd2919061143f565b60405180910390a3600191505092915050565b6000600a60008473ffffffffffffffffffffffffffffffffffffffff1673ffffffffffffffffffffffffffffffffffffffff16815260200190815260200160002060008373ffffffffffffffffffffffffffffffffffffffff1673ffffffffffffffffffffffffffffffffffffffff16815260200190815260200160002054905092915050565b600081359050610e7b8161161c565b92915050565b600081359050610e9081611633565b92915050565b600060208284031215610ea857600080fd5b6000610eb684828501610e6c565b91505092915050565b60008060408385031215610ed257600080fd5b6000610ee085828601610e6c565b9250506020610ef185828601610e6c565b9150509250929050565b600080600060608486031215610f1057600080fd5b6000610f1e86828701610e6c565b9350506020610f2f86828701610e6c565b9250506040610f4086828701610e81565b9150509250925092565b60008060408385031215610f5d57600080fd5b6000610f6b85828601610e6c565b9250506020610f7c85828601610e81565b9150509250929050565b600060208284031215610f9857600080fd5b6000610fa684828501610e81565b91505092915050565b610fb881611500565b82525050565b610fc781611512565b82525050565b6000610fd88261145a565b610fe28185611465565b9350610ff2818560208601611548565b610ffb8161160b565b840191505092915050565b6000611013602883611465565b91507f43414e4e4f54205452414e5346455220544f4b454e20554e54494c205448452060008301527f444541444c494e450000000000000000000000000000000000000000000000006020830152604082019050919050565b6000611079601683611465565b91507f6d696e6974696e67206c696d69742065786365646564000000000000000000006000830152602082019050919050565b60006110b9602a83611465565b91507f20594f5520415245205452414e53464552494e472046524f4d20544845205a4560008301527f524f2041444452455353000000000000000000000000000000000000000000006020830152604082019050919050565b600061111f601b83611465565b91507f5452414e5346455220414d4d4f554e54204953204558434544454400000000006000830152602082019050919050565b600061115f602783611465565b91507f594f5520415245205452414e53464552494e4720544f20544845205a45524f2060008301527f41444452455353000000000000000000000000000000000000000000000000006020830152604082019050919050565b60006111c5601d83611465565b91507f415050524f56452046524f4d20544845205a45524f20414444524553530000006000830152602082019050919050565b6000611205602083611465565b91507f6f6e6c79206f776e65722063616e2072756e20746869732066756e6374696f6e6000830152602082019050919050565b6000611245601483611465565b91507f494e53554646494349454e542042414c414e43450000000000000000000000006000830152602082019050919050565b6000611285601b83611465565b91507f415050524f564520544f20544845205a45524f204144445245535300000000006000830152602082019050919050565b6112c18161153e565b82525050565b60006020820190506112dc6000830184610faf565b92915050565b60006020820190506112f76000830184610fbe565b92915050565b600060208201905081810360008301526113178184610fcd565b905092915050565b6000602082019050818103600083015261133881611006565b9050919050565b600060208201905081810360008301526113588161106c565b9050919050565b60006020820190508181036000830152611378816110ac565b9050919050565b6000602082019050818103600083015261139881611112565b9050919050565b600060208201905081810360008301526113b881611152565b9050919050565b600060208201905081810360008301526113d8816111b8565b9050919050565b600060208201905081810360008301526113f8816111f8565b9050919050565b6000602082019050818103600083015261141881611238565b9050919050565b6000602082019050818103600083015261143881611278565b9050919050565b600060208201905061145460008301846112b8565b92915050565b600081519050919050565b600082825260208201905092915050565b60006114818261153e565b915061148c8361153e565b9250827fffffffffffffffffffffffffffffffffffffffffffffffffffffffffffffffff038211156114c1576114c06115ad565b5b828201905092915050565b60006114d78261153e565b91506114e28361153e565b9250828210156114f5576114f46115ad565b5b828203905092915050565b600061150b8261151e565b9050919050565b60008115159050919050565b600073ffffffffffffffffffffffffffffffffffffffff82169050919050565b6000819050919050565b60005b8381101561156657808201518184015260208101905061154b565b83811115611575576000848401525b50505050565b6000600282049050600182168061159357607f821691505b602082108114156115a7576115a66115dc565b5b50919050565b7f4e487b7100000000000000000000000000000000000000000000000000000000600052601160045260246000fd5b7f4e487b7100000000000000000000000000000000000000000000000000000000600052602260045260246000fd5b6000601f19601f8301169050919050565b61162581611500565b811461163057600080fd5b50565b61163c8161153e565b811461164757600080fd5b5056fea2646970667358221220a22a44d4087c192e261554962bc440eb1e62da0350ce09714ed8c200450f66bd64736f6c63430008000033",
  "immutableReferences": {},
  "source": "// SPDX-License-Identifier: MIT\r\npragma solidity ^0.8.0;\r\n\r\n//NAME = HAMID MUSTAFA DAHRI\r\n//ROLL NO = PIAIC 71456\r\n// with capped mint limit and timebount functionalaties.\r\n\r\ninterface IERC20 {\r\n   \r\n    function totalSupply() external view returns (uint256);\r\n    function balanceOf(address account) external view returns (uint256);\r\n    function transfer(address recipient, uint256 amount) external returns (bool);\r\n    function allowance(address owner, address spender) external view returns (uint256);\r\n    function approve(address spender, uint256 amount) external returns (bool);\r\n    function transferFrom(address sender, address recipient, uint256 amount) external returns (bool);\r\n    event Transfer(address indexed from, address indexed to, uint256 value);\r\n    event Approval(address indexed owner, address indexed spender, uint256 value);\r\n}\r\n\r\ncontract Hamid is IERC20{\r\n\r\n    address public owner; \r\n    string public name;\r\n    string public symbol;\r\n    uint256 public decimals;\r\n    uint256 private _totalSupply;\r\n    uint private _mintTokenLimit;\r\n    uint256 private _circulatingSupply;\r\n    uint private Now;\r\n    uint private deadline;\r\n     \r\n    mapping (address => uint256) private _balances;\r\n    mapping (address => mapping (address => uint256)) private _allowances;\r\n    \r\n    constructor () public {\r\n        name = \"Hamid-TOKEN\";\r\n        symbol = \"HMD\";\r\n        decimals = 18;  \r\n        owner = msg.sender;\r\n        Now = block.timestamp;\r\n        deadline = Now + (30*1 days);\r\n        _mintTokenLimit = 1000000000 * 10 **decimals;\r\n        _circulatingSupply = 1000 * 10**decimals;  \r\n        _totalSupply = _mintTokenLimit;\r\n        _balances[owner] = _totalSupply;\r\n        emit Transfer(address(this),owner,_totalSupply);\r\n     }\r\n    \r\n     modifier onlyOwner {\r\n        require(msg.sender == owner,\"only owner can run this function\");\r\n        _;\r\n    }\r\n     \r\n    function mint(uint addAmount) public onlyOwner returns (uint){\r\n        require(_circulatingSupply+addAmount < _mintTokenLimit , \"miniting limit exceded\");\r\n        _balances[msg.sender] += addAmount;\r\n        _circulatingSupply += addAmount;\r\n        return _circulatingSupply;\r\n    }\r\n    function transfer(address recipient, uint256 amount) public virtual override returns (bool) {\r\n        address sender = msg.sender;\r\n        require(sender != address(0), \" YOU ARE TRANSFERING FROM THE ZERO ADDRESS\");\r\n        require(recipient != address(0), \"YOU ARE TRANSFERING TO THE ZERO ADDRESS\");\r\n        require(_balances[sender] > amount,\"INSUFFICIENT BALANCE\");\r\n        require(block.timestamp >= deadline,\"CANNOT TRANSFER TOKEN UNTIL THE DEADLINE\");\r\n        _balances[sender] = _balances[sender] - amount;\r\n        _balances[recipient] = _balances[recipient] + amount;\r\n        emit Transfer(sender, recipient, amount);\r\n        return true;\r\n    }\r\n    function approve(address spender, uint256 amount) public virtual override returns (bool) {\r\n        address tokenOwner = msg.sender;\r\n        require(tokenOwner != address(0), \"APPROVE FROM THE ZERO ADDRESS\");\r\n        require(spender != address(0), \"APPROVE TO THE ZERO ADDRESS\");\r\n        _allowances[tokenOwner][spender] = amount;\r\n        emit Approval(tokenOwner, spender, amount);\r\n        return true;\r\n    }\r\n    function transferFrom(address tokenOwner, address recipient, uint256 amount) public virtual override returns (bool) {\r\n        address spender = msg.sender;\r\n        uint256 _allowance = _allowances[tokenOwner][spender]; \r\n        require(_allowance > amount, \"TRANSFER AMMOUNT IS EXCEDED\");\r\n        _allowance = _allowance - amount;\r\n        _balances[tokenOwner] =_balances[tokenOwner] - amount; \r\n        _balances[recipient] = _balances[recipient] + amount;\r\n        emit Transfer(tokenOwner, recipient, amount);\r\n        _allowances[tokenOwner][spender] = _allowance;\r\n        emit Approval(tokenOwner, spender, amount);\r\n        return true;\r\n    }\r\n    function totalSupply() public view override returns (uint256) {\r\n        return _totalSupply;\r\n    }\r\n    function circulatingSupply() public view returns (uint256) {\r\n        return _circulatingSupply;\r\n    }\r\n    function balanceOf(address account) public view override returns (uint256) {\r\n        return _balances[account];\r\n    }\r\n     function allowance(address tokenOwner, address spender) public view virtual override returns (uint256) {\r\n        return _allowances[tokenOwner][spender]; \r\n    }\r\n}",
  "sourcePath": "C:\\Users\\imham\\OneDrive\\Desktop\\Assignment 3B\\contracts\\ERC20.sol",
  "compiler": {
    "name": "solc",
    "version": "0.8.0+commit.c7dfd78e.Emscripten.clang"
  },
  "schemaVersion": "3.4.3",
  "updatedAt": "2021-08-24T12:13:44.166Z",
  "networkType": "ethereum",
  "devdoc": {
    "kind": "dev",
    "methods": {},
    "version": 1
  },
  "userdoc": {
    "kind": "user",
    "methods": {},
    "version": 1
  }
}